:020000040800F2
:10000000F8B9002015020008813500087130000899
:100010007D3500088D100008393800080000000008
:10002000000000000000000000000000893500080A
:100030009D10000800000000853500088D3500087F
:100040002F0200082F0200082F0200082F020008CC
:100050002F0200082F0200082F0200082F020008BC
:100060002F0200082F0200082F0200082F020008AC
:100070002F0200082F0200082F0200082F0200089C
:10008000911000082F0200082F0200082F0200081C
:100090002F0200082F0200082F0200082F0200087C
:1000A0002F0200082F0200082F0200082F0200086C
:1000B0002F02000895350008A13500082F0200081E
:1000C0002F0200082F0200082F0200082F0200084C
:1000D0002F0200082F020008213800082F02000814
:1000E0002F0200082F0200082F0200082F0200082C
:1000F0002F0200082F0200082F0200082F0200081C
:100100002F0200082F0200082F0200082F0200080B
:100110002F0200082F020008AD350008B93500088D
:100120002F0200082F0200082F0200082F020008EB
:1001300000F002F800F05EF80AA090E8000C82449B
:100140008344AAF10107DA4501D100F053F8AFF278
:10015000090EBAE80F0013F0010F18BFFB1A43F0A5
:10016000010318476C4C00008C4C00000A4410F846
:10017000013B13F0030408BF10F8014B1D1108BF29
:1001800010F8015B641E05D010F8016B641E01F8C5
:10019000016BF9D1002D15D010F8014B03F00C03C1
:1001A0000C2BA1EB04040ABF10F8013BA4EB831451
:1001B000A4EB032405F1010314F8016B5B1E01F8A5
:1001C000016BF9D5914238BF10F8013BD1D370478C
:1001D0000023002400250026103A28BF78C1FBD850
:1001E000520728BF30C148BF0B6070471FB51FBD05
:1001F00010B510BD00F031F81146FFF7F7FF04F01D
:1002000095F900F04FF803B4FFF7F2FF03BC00F0DC
:1002100057F800000948804709480047FEE7FEE715
:10022000FEE7FEE7FEE7FEE7FEE7FEE7FEE7FEE7A6
:1002300004480549054A064B7047000091350008FF
:1002400031010008F8B30020F8B90020F8B500200B
:10025000F8B50020704770477047754600F02CF8DD
:10026000AE4605006946534620F00700854618B0A3
:1002700020B5FFF7DDFFBDE820404FF000064FF04E
:1002800000074FF000084FF0000BAC46ACE8C00987
:10029000ACE8C009ACE8C009ACE8C00921F007012E
:1002A0008D46704710B50446AFF300802046BDE888
:1002B0001040FFF7A8BF000000487047C8AF0020FB
:1002C00001491820ABBEFEE726000200704700007F
:1002D000B0B540F60044C4F20104054620464FF490
:1002E0008051002201F078FB20464FF4804100222B
:1002F00001F072FB20464FF40051002201F06CFB2C
:1003000020464FF48041012201F066FB20464FF465
:100310008041002201F060FB20464FF40051002292
:1003200001F05AFB20464FF48041012201F054FBBA
:1003300020464FF48041002201F04EFB20464FF44E
:100340000051002201F048FB20464FF48041012279
:1003500001F042FB20464FF48041002201F03CFBBB
:1003600020464FF40051012201F036FB20464FF4A5
:100370008041012201F030FB20464FF480410022F1
:1003800001F02AFB20464FF40051002201F024FB2B
:1003900020464FF48041012201F01EFB20464FF41D
:1003A0008041002201F018FB20464FF4005100224A
:1003B00001F012FB20464FF48041012201F00CFBBA
:1003C00020464FF48041002201F006FB20464FF406
:1003D0000051002201F000FB20464FF48041012231
:1003E00001F0FAFA20464FF48041002201F0F4FABD
:1003F00020464FF40051012201F0EEFA20464FF45E
:100400008041012201F0E8FA20464FF480410022A9
:1004100001F0E2FAEA0920464FF4005101F0DCFA5B
:1004200020464FF48041012201F0D6FA20464FF4D5
:100430008041002201F0D0FAC5F3801220464FF42B
:10044000005101F0C9FA20464FF48041012201F029
:10045000C3FA20464FF48041002201F0BDFAC5F3F3
:10046000401220464FF4005101F0B6FA20464FF4F6
:100470008041012201F0B0FA20464FF48041002271
:1004800001F0AAFAC5F3001220464FF4005101F022
:10049000A3FA20464FF48041012201F09DFA204644
:1004A0004FF48041002201F097FAC5F3C0022046C4
:1004B0004FF4005101F090FA20464FF480410122A0
:1004C00001F08AFA20464FF48041002201F084FABC
:1004D000C5F3800220464FF4005101F07DFA20461A
:1004E0004FF48041012201F077FA20464FF4804119
:1004F000002201F071FAC5F3400220464FF400518A
:1005000001F06AFA20464FF48041012201F064FABA
:1005100020464FF48041002201F05EFA05F001020E
:1005200020464FF4005101F057FA20464FF4804125
:10053000012201F051FA20464FF480510122BDE81A
:10054000B04001F049BA0000B0B541F20004C4F275
:100550000104054620460821002201F03DFA20460C
:100560000221002201F038FA20460421002201F085
:1005700033FA20460221012201F02EFA2046022100
:10058000002201F029FA20460421002201F024FA79
:1005900020460221012201F01FFA204602210022FA
:1005A00001F01AFA20460421002201F015FA204633
:1005B0000221012201F010FA20460221002201F05E
:1005C0000BFA20460421012201F006FA20460221FE
:1005D000012201F001FA20460221002201F0FCF97B
:1005E00020460421002201F0F7F9204602210122D1
:1005F00001F0F2F920460221002201F0EDF9204637
:100600000421002201F0E8F920460221012201F034
:10061000E3F920460221002201F0DEF92046042100
:10062000002201F0D9F920460221012201F0D4F97B
:1006300020460221002201F0CFF9204604210122A8
:1006400001F0CAF920460221012201F0C5F9204635
:100650000221002201F0C0F9EA092046042101F03C
:10066000BBF920460221012201F0B6F92046022101
:10067000002201F0B1F9C5F380122046042101F0F7
:10068000ABF920460221012201F0A6F92046022101
:10069000002201F0A1F9C5F340122046042101F027
:1006A0009BF920460221012201F096F92046022101
:1006B000002201F091F9C5F300122046042101F057
:1006C0008BF920460221012201F086F92046022101
:1006D000002201F081F9C5F3C0022046042101F097
:1006E0007BF920460221012201F076F92046022101
:1006F000002201F071F9C5F380022046042101F0C7
:100700006BF920460221012201F066F92046022100
:10071000002201F061F9C5F340022046042101F0F6
:100720005BF920460221012201F056F92046022100
:10073000002201F051F905F001022046042101F0E8
:100740004BF920460221012201F046F920460821FA
:100750000122BDE8B04001F03FB90000F0B581B022
:100760001C4648F280431546069FC4F22E13002211
:1007700003F026FF47F6E123C4F264134FF08042F2
:1007800004F0E8F804F076F806464FF4807000F0C4
:1007900079F84FF4045000F075F82DB1012D17D100
:1007A0004FF4004102E000BF4FF48041C6F38D32A8
:1007B0006FF39F3646EA010047F4404542EA0106DE
:1007C00000F060F8304600F05DF8284600F05AF876
:1007D000022C84BF01B0F0BD44F65430C0F60000D6
:1007E00050F8240001B0BDE8F04000F04BB8000024
:1007F000F0B581B01C4648F280431546069FC4F20E
:100800002E13002203F0DCFE47F6E123C4F264134A
:100810004FF0804204F09EF804F02CF806464FF4A6
:10082000807000F07FF94FF4045000F07BF92DB197
:10083000012D17D14FF4004102E000BF4FF4804179
:10084000C6F38D326FF39F3646EA010047F4404508
:1008500042EA010600F066F9304600F063F92846E6
:1008600000F060F9022C84BF01B0F0BD44F65430B2
:10087000C0F6000050F8240001B0BDE8F04000F0E0
:1008800051B9000070B540F60044C4F201040546B9
:1008900020464FF48041012201F09EF820464FF49B
:1008A0000041012201F098F820464FF40041002257
:1008B00001F092F8C5F3C03220464FF4005101F028
:1008C0008BF820464FF48041002201F085F8204645
:1008D0004FF48041012201F07FF8C5F380322046B9
:1008E0004FF4005101F078F820464FF48041002287
:1008F00001F072F820464FF48041012201F06CF8BB
:10090000C5F3403220464FF4005101F065F820460F
:100910004FF48041002201F05FF820464FF48041FF
:10092000012201F059F8C5F3003220464FF400517E
:1009300001F052F820464FF48041002201F04CF8BB
:1009400020464FF48041012201F046F8C5F3C02251
:1009500020464FF4005101F03FF820464FF480410B
:10096000002201F039F820464FF48041012201F0C5
:1009700033F8C5F3802220464FF4005101F02CF8E3
:1009800020464FF48041002201F026F820464FF423
:100990008041012201F020F8C5F3402220464FF4A7
:1009A000005101F019F820464FF48041002201F077
:1009B00013F820464FF48041012201F00DF8C5F3F1
:1009C000002220464FF4005101F006F820464FF473
:1009D0008041002201F000F820464FF480410122BE
:1009E00000F0FAFFEEB2F20920464FF4005100F099
:1009F000F3FF20464FF48041002200F0EDFF204637
:100A00004FF48041012200F0E7FFC6F38012204638
:100A10004FF4005100F0E0FF20464FF480410022E7
:100A200000F0DAFF20464FF48041012200F0D4FFAD
:100A3000C6F3401220464FF4005100F0CDFF20468F
:100A40004FF48041002200F0C7FF20464FF4804160
:100A5000012200F0C1FFC6F3001220464FF40051FE
:100A600000F0BAFF20464FF48041002200F0B4FFAE
:100A700020464FF48041012200F0AEFFC6F3C002D1
:100A800020464FF4005100F0A7FF20464FF480416C
:100A9000002200F0A1FF20464FF48041012200F027
:100AA0009BFFC6F3800220464FF4005100F094FFF4
:100AB00020464FF48041002200F08EFF20464FF484
:100AC0008041012200F088FFC6F3400220464FF427
:100AD000005100F081FF20464FF48041002200F0D9
:100AE0007BFF20464FF48041012200F075FF05F0A6
:100AF000010220464FF4005100F06EFF20464FF4F3
:100B00008041002200F068FF20464FF4804101221E
:100B100000F062FF20464FF400410122BDE8704022
:100B200000F05ABF70B541F20004C4F2010405465A
:100B300020460221012200F04FFF20460121012220
:100B400000F04AFF20460121002200F045FFC5F3D6
:100B5000C0322046042100F03FFF2046022100223F
:100B600000F03AFF20460221012200F035FFC5F3D4
:100B700080322046042100F02FFF2046022100226F
:100B800000F02AFF20460221012200F025FFC5F3D4
:100B900040322046042100F01FFF2046022100229F
:100BA00000F01AFF20460221012200F015FFC5F3D4
:100BB00000322046042100F00FFF204602210022CF
:100BC00000F00AFF20460221012200F005FFC5F3D4
:100BD000C0222046042100F0FFFE20460221002210
:100BE00000F0FAFE20460221012200F0F5FEC5F3D6
:100BF00080222046042100F0EFFE20460221002240
:100C000000F0EAFE20460221012200F0E5FEC5F3D5
:100C100040222046042100F0DFFE2046022100226F
:100C200000F0DAFE20460221012200F0D5FEC5F3D5
:100C300000222046042100F0CFFE2046022100229F
:100C400000F0CAFE20460221012200F0C5FEEEB2ED
:100C5000F2092046042100F0BFFE204602210022B6
:100C600000F0BAFE20460221012200F0B5FEC6F3D4
:100C700080122046042100F0AFFE2046022100220F
:100C800000F0AAFE20460221012200F0A5FEC6F3D4
:100C900040122046042100F09FFE2046022100223F
:100CA00000F09AFE20460221012200F095FEC6F3D4
:100CB00000122046042100F08FFE2046022100226F
:100CC00000F08AFE20460221012200F085FEC6F3D4
:100CD000C0022046042100F07FFE204602210022AF
:100CE00000F07AFE20460221012200F075FEC6F3D4
:100CF00080022046042100F06FFE204602210022DF
:100D000000F06AFE20460221012200F065FEC6F3D3
:100D100040022046042100F05FFE2046022100220E
:100D200000F05AFE20460221012200F055FE05F097
:100D300001022046042100F04FFE2046022100223D
:100D400000F04AFE20460221012200F045FE204626
:100D500001210122BDE8704000F03EBE2DE9F04FB8
:100D600085B041F21800C4F20200016840F60006A6
:100D700041F0040101600168C4F2010601F00401C0
:100D8000019101990168002241F0080101600168A8
:100D90004FF4004701F008010191019901684FF0FB
:100DA000000841F01001016000684FF4004100F0BC
:100DB000100001900198304600F00EFE06F58065A7
:100DC0002846F82100224FF0F80900F005FE06F54C
:100DD000006420464FF4FD51002200F0FDFD019714
:100DE00001AF4FF0010B4FF0030A30463946CDE911
:100DF00002B8CDF810A000F0EDFC28463946CDE948
:100E0000019BCDE9038A00F0E5FC4FF4FD50CDE9EC
:100E1000010B20463946CDE9038A00F0DBFC05B022
:100E2000BDE8F08F2DE9F04782B0D0200090FFF7A9
:100E300095FF02F035F941F20004C4F201042046A6
:100E4000202100224FF0000A00F0C6FD204620219C
:100E5000012200F0C1FD20462021002200F0BCFD4F
:100E60006A4601200321012302F0E8FC4BF24E0503
:100E7000C2F20005022002212A46012302F0DEFC14
:100E800040F20804C2F20004206903F050FD4DF264
:100E9000956642F60B69CEF62606C4F22109324663
:100EA0004B4603F057FD03F015FD00BA04F10308AB
:100EB0000190002001214246012302F0BFFC01AA5B
:100EC00004200421012302F0B9FC606803F02FFD27
:100ED00032464B4603F03EFD03F0FCFC00BA0190A5
:100EE000002001212246012302F0A8FC01AA0420CF
:100EF0000421012302F0A2FCA06803F018FD324691
:100F00004B4603F027FD03F0E5FC00BA671C019097
:100F1000002001213A46012302F090FC01AA04209E
:100F20000421012302F08AFCE06803F000FD324650
:100F30004B4603F00FFD03F0CDFC00BAA61C019058
:100F4000002001213246012302F078FC01AA04208E
:100F50000421012302F072FC208F012100BA000C51
:100F600025F8020F00204246012302F067FC05200D
:100F700002212A46012302F061FCA08D012100BA62
:100F8000000C288000202246012302F057FC052097
:100F900002212A46012302F051FC208E012100BAD1
:100FA000000C288000203A46012302F047FC05206F
:100FB00002212A46012302F041FCA08E012100BA41
:100FC000000C288000203246012302F037FC052067
:100FD00002212A46012302F031FC606A10258DF8B7
:100FE000060045EA10208DF8050000200121424648
:100FF00001238DF804A002F021FC01AA06200321A0
:10100000012302F01BFCA06901218DF8060045EACE
:1010100010208DF805000020224601238DF804A041
:1010200002F00CFC01AA06200321012302F006FCB9
:10103000E06901218DF8060045EA10208DF80500D1
:1010400000203A4601238DF804A002F0F7FB01AA24
:1010500006200321012302F0F1FB206A01218DF813
:10106000060045EA10208DF80500002032460123D5
:101070008DF804A002F0E2FB01AA0620032101235F
:1010800002F0DCFB02B0BDE8F0870000FEE70000E4
:101090004BF2F400C2F2000000F0BAB97047000051
:1010A000EFF3108072B600BFFEE7000010B5437981
:1010B000012B4FF002031DD00371036802F0100EE4
:1010C000D3F800C0D1E9004140F6FE7202FA0EF2F8
:1010D00021432CEA020201FA0EF111431960C021EA
:1010E0001A6801FA0EF122EA0101196001210023B8
:1010F00001714371184610BD002804BF01207047DC
:1011000010B50446007920B900206071204600F037
:1011100007F802202071002001212061217110BDFB
:101120002DE9F04F85B0044647F200402168C4F233
:101130000000002681420496039603D005B0BDE866
:10114000F08F00BF41F21801C4F202014A6840F278
:10115000304742F000524A604A6800F5144002F0FD
:1011600000520092009A0A68C4F2020742F0040298
:101170000A60096801F00401009100993021019191
:101180000321029101A900F025FB4BF26C05C2F28C
:1011900000052F60802705F10C004FF010084FF478
:1011A00080794FF4806A4FF0200B80E8800E28464B
:1011B000C5E90186EE6100F077FA002818BFFFF755
:1011C0006FFF40F23040A5606C62C4F202004BF247
:1011D000B0051430C2F200050021C5E9000805F190
:1011E000080080E8820E2846E96100F05DFA0028D8
:1011F00018BFFFF755FFE5606C6205B0BDE8F08FE2
:1012000081B04FF0000CCDF800C0006800290090BC
:101210000098104414BF143008300090009900204A
:101220000B6001B07047000010B54279012A4FF001
:10123000020223D00271026801F0100E4FF0010C7F
:1012400014680CFA0EF323431360D2F800C049B1BE
:101250003C230CF4701103FA0EF399420AD10221D7
:1012600005E000BF0CF03C013C2903D1012153688B
:10127000194351600121002201714271104610BDD5
:10128000024601F0100011684FF0010C0B680CFAD7
:1012900000F023EA00000860002082F804C07047D4
:1012A000014690F82100022816D10868D1E90FC341
:1012B000026822F00E020260026822F0010202605F
:1012C000012000FA03F2CCF8042081F8210000206C
:1012D000002281F82020704704208863012000222A
:1012E00081F820207047000080B590F82110022975
:1012F00028D1026840F2040C1368C4F2020C23F0F7
:101300000E03136013680CF17C018A4223F0010183
:1013100011601BD940F20841C4F202018A4249D04F
:1013200040F21C41C4F202018A4247D040F23041EF
:10133000C4F202018A4245D14FF48073CCF80034E4
:101340005DE000BF04218163012080BD4321C4F220
:1013500002018A420EDD6B21C4F202018A421BDCCB
:101360004421C4F202018A423CD05821C4F2020155
:101370008A4233E00821C4F202018A4236D01C219D
:10138000C4F202018A4237D03021C4F202018A42FB
:1013900024D14FF4807230E06C21C4F202018A4201
:1013A00026D08021C4F202018A4217D14FF0807208
:1013B00023E000BF0123CCF8003420E01023CCF858
:1013C00000341CE00CF588614FF480338A4208BF7A
:1013D0004FF48053CCF8003411E000BF4FF480325A
:1013E0000BE000BF4FF4805207E000BF012204E091
:1013F0004FF4801201E000BF1022CCF80020416BB6
:101400004FF48072028401B18847002080BD000043
:1014100010B5D0E90FE3D0F800C0DEF80020DCF80A
:101420000010DA4054072DD511F004042AD0DCF85E
:101430000010890605D4DCF8001021F00401CCF876
:1014400000100422C4F2020202F17C018C454DD945
:1014500040F20841C4F202018C4500F0AF8040F236
:101460001C41C4F202018C4500F0AC8040F23041D6
:10147000C4F202018C4540F0A9804FF48061C2F8AB
:101480000014F7E0940747D511F0020444D0DCF8CB
:101490000010890608D4DCF8001021F00A01CCF80D
:1014A0000010012180F821100422C4F2020202F18E
:1014B0007C018C454CD940F20841C4F202018C45B4
:1014C00000F0B48040F21C41C4F202018C4500F0EF
:1014D000B18040F23041C4F202018C4540F0AE8050
:1014E0004FF40071C2F80014D6E000BF4321C4F2EB
:1014F00002018C4542DD6B21C4F202018C454FDCB8
:101500004421C4F202018C4500F0A4805821C4F2A9
:1015100002018C4566E000BF120740F1C38011F064
:10152000080108BF10BDDCF8001021F00E01CCF856
:101530000010012101FA03F2CEF804208163016B4F
:101540004FF480720029028440F09680AAE000BF28
:101550004321C4F202018C4548DD6B21C4F2020133
:101560008C4555DC4421C4F202018C4500F0888092
:101570005821C4F202018C4576E000BF0821C4F274
:1015800002018C456AD01C21C4F202018C456FD047
:101590003021C4F202018C4524D14FF4806168E00F
:1015A0006C21C4F202018C455AD08021C4F20201A0
:1015B0008C4517D14FF080615BE000BF0421C2F879
:1015C000001457E04021C2F8001453E002F588638C
:1015D0004FF480219C4508BF4FF48041C2F80014AD
:1015E00048E000BF4FF4802143E000BF0821C4F26F
:1015F00002018C4548D01C21C4F202018C4549D01F
:101600003021C4F202018C452ED14FF4007142E02A
:101610006C21C4F202018C4538D08021C4F2020151
:101620008C4521D14FF0007135E000BF0221C2F896
:10163000001431E02021C2F800142DE002F5886387
:101640004FF400319C4508BF4FF40051C2F800141C
:1016500022E000BF4FF480410BE000BF042108E00E
:101660004FF4800105E000BF4FF4003113E000BFEC
:1016700040211160C16AA9B1BDE81040084700BF10
:101680004FF4005107E000BF022104E04FF40011C5
:1016900001E000BF20211160816A0022002980F84A
:1016A0002020E9D110BD0000002804BF01207047B0
:1016B0002DE9F04140F2000CC4F2020C01684FF633
:1016C000F8320CF58163CBF6FD72994238BF02F512
:1016D00080624CF6CD430A44CCF6CC43A2FB0323F4
:1016E0006FF003050CF5806405EA9303D0E9012E41
:1016F000D0F80C803CBF0024C4F20204C0E90F43C0
:101700000B6843F6F075AB431A43D0E9045442EA40
:101710000E0242EA0802D0E906672A432243324316
:101720003A430A6000214FF4807281630284BDE86D
:10173000F041084670470000F0B590F820C0BCF1B9
:10174000010F32D090F821C04FF0010EBCF1010F13
:1017500080F820E026D14FF0020C80F821C04FF035
:10176000000CC0F838C0D0E900C4C56AC66BDCF80C
:101770000070102C27F00107CCF80070006C0EFAF6
:1017800000F070600846CCF8043004BF10460A46EA
:10179000CCF80800CCF80C20DCF8000045B140F093
:1017A0000E000DE0002180F820100220F0BD00BFE7
:1017B00020F00400CCF80000DCF8000040F00A0043
:1017C000CCF80000DCF8000040F00100CCF800008C
:1017D0000020F0BD2DE9F04F83B041F60043C4F284
:1017E00001030E6806229842019008BF0522002ED0
:1017F000009200F0ED80019840F20C45A0F180438A
:10180000A3F584334FEAB32740F200404FF6FF734D
:10181000C4F20105C4F20100009A4FF0000E4FF02F
:10182000010CC1F210034FF0000A4FF0000B4FF013
:101830000F08052F38BF3A46009208E00E680AF1FB
:10184000010A36FA0AF20EF1040E00F0C1800CFA19
:101850000AF916EA090FF1D04E689E4212DC122EE8
:1018600056D8DFE806F0350B4549555555555555C1
:10187000555555555555554D510000BFD1F80CB033
:1018800046E000BF4FF6FF72C1F2210296420FDC24
:101890000022C1F2110296421AD00022C1F21202B5
:1018A000964215D00022C1F22102964210D02FE0BC
:1018B0000022C1F2220296420AD00022C1F2310275
:1018C000964205D00022C1F23202964220D100BFDA
:1018D0008E684EB1012E019A14BFC2F81490C2F85E
:1018E00010904FF0080B13E04FF0040B10E000BF16
:1018F000CF6807F1080B0BE04FF0000B08E000BFCA
:10190000CF6807F1040B03E0CF6807F10C0B00BFB1
:101910007446BAF1080F28BF203C019F28BF043746
:101920003E6808FA04F226EA02020BFA04F6324391
:101930003A60CA79D2067FF581AF41F21807C4F246
:1019400002073A684FF6084C42F001023A603A68E2
:10195000CFF6FF7C02F001020292029A2AF0030203
:10196000024452F80C700EF00C0608FA06F4A74375
:10197000009C04FA06F6374342F80C70D1F804C014
:101980005FEACC32026854BF22EA090642EA09063D
:101990005FEA8C320660426854BF22EA090642EAD6
:1019A00009065FEACC224660826854BF22EA090633
:1019B00042EA09065FEA8C2286604FF0010C2A6831
:1019C00054BF22EA090642EA09062E6036E700BF44
:1019D00003B0BDE8F08F0000002A08BF09040161D0
:1019E000704700004BF2F430C2F20000006870470C
:1019F00040F200004BF2F431C2F20000C2F20001EA
:101A000000780A68104408607047000080B542F210
:101A10000000C4F20200016841F0100101600320DF
:101A200000F08AF80F2000F005F800F027F80020F9
:101A300080BD000070B540F20006C2F2000640F220
:101A400048013278C2F200014FF47A730968B3FB9F
:101A5000F2F20446B1FBF2F1084600F05FFB0F2CF6
:101A60004FF0010508D838B94FF0FF302146002269
:101A7000002500F035F87460284670BD82B041F250
:101A80001800C4F202000168022241F00101016065
:101A9000016801F0010101910199416841F0805113
:101AA0004160406800F08050009000980420C4F22B
:101AB0000100016862F31A61016002B07047000022
:101AC000002848BF704700F01F01012202FA01F10F
:101AD0004EF200124009CEF2000242F82010704788
:101AE00010B54EF60C5CCEF2000CDCF80030C3F3FF
:101AF000022E8EF00704042C28BF0424BEF1030339
:101B00004FF0FF3E0EFA04F438BF0023A143994082
:101B10000EFA03F39A43114300F00F02043A6244B1
:101B200009010C3200F16043B0F1FF3FC8BF03F57B
:101B30006442117010BD00004EF60C51CEF200014F
:101B40000A684FF6FF031A4060F30A2242F08060F1
:101B500040F0FD70086070472DE9F04381B0002827
:101B600000F0858042F20008C4F202080446D8F86A
:101B700000000D4600F0070088420CD2D8F80000A3
:101B800020F007002843C8F80000D8F8000000F053
:101B90000700A8426BD1206841F204098107C4F212
:101BA000020917D5410705D5D9F8001041F4E061C5
:101BB000C9F80010010705D5D9F8001041F46051AB
:101BC000C9F80010D9F80010A26821F0F001114303
:101BD000C9F80010C00741D1D8F8000000F0070094
:101BE000A8420CD9D8F8000020F007002843C8F814
:101BF0000000D8F8000000F00700A84237D12068A4
:101C0000410707D5D9F80010E26821F4E0611143DB
:101C1000C9F80010000708D5D9F80000216920F4A0
:101C2000605040EAC100C9F80000D9F8002002F075
:101C30000C00082841F20020C0F27A0050D144F68E
:101C4000C053C2F38341C0F60003595CD2033BD4B6
:101C500040F60010C0F23D00484341E060680228B1
:101C60000AD001282AD159F8041C890308D401207C
:101C700001B0BDE8F08300BF59F8041C8901F6D516
:101C8000D9F8001021F003010843C9F80000FFF75C
:101C9000A9FE064641F28837D9F80000616800F0D5
:101CA0000C00B0EB810F97D0FFF79CFE801BB84271
:101CB000F2D9032001B0BDE8F08300BF59F8041C3D
:101CC0008907D4D5DCE700BFD9F8002044F65033AB
:101CD000C2F34042C0F600039A5C4843B0FBF2F006
:101CE000D9F8001044F6A832C1F30311C0F600027F
:101CF000515C40F2480220FA01F140F20400C2F2C5
:101D000000000068C2F200021160FFF793FE00209D
:101D100001B0BDE8F083000040F2480041F2040148
:101D2000C2F20000C4F202010068096844F6B83249
:101D3000C1F30221C0F60002515CC84070470000A8
:101D400040F2480041F20401C2F20000C4F2020174
:101D50000068096844F6B832C1F3C221C0F6000237
:101D6000515CC840704700002DE9F04182B0002866
:101D700068D00446007841F20006C007C4F20206AB
:101D800025D0706800F00C0004281BD0706800F0AB
:101D90000C00082802D17068C00313D460680028C2
:101DA00000F06881B0F5A02F00F07C81B0F5803F95
:101DB00000F07C81306820F480303060306820F49E
:101DC000802076E13068800301D56068D0B3207848
:101DD000800718D5706810F00C0F07D0706800F0FD
:101DE0000C0008286ED17068C0036BD4306880077F
:101DF00002D52069012825D13068616920F0F800FA
:101E000040EAC1003060207800071FD420784007E6
:101E100032D4E56995B1706800F00C00082840F0F4
:101E20008F80012D0ED07068216A00F480328A42C2
:101E300008D1616A00F47010884203D1002002B01A
:101E4000BDE8F081012002B0BDE8F081A069002862
:101E500062D00020C4F242200121C0F88014FFF7B4
:101E6000C1FD0546706A800700F18C80FFF7BAFD5E
:101E7000401B0228F6D92AE1F06910F0805808D1F9
:101E8000F06940F08050F061F06900F080500090FF
:101E9000009847F20007C4F200073868C00529D44B
:101EA000386840F480703860FFF79CFD054600BF3D
:101EB0003868C0051ED4FFF795FD401B6428F7D98C
:101EC00005E100BF2069002840F20000C4F2422072
:101ED00000F0828001210160FFF784FD054600BF0C
:101EE000306880073FF588AFFFF77CFD401B022874
:101EF000F6D9ECE0E068002800F08080052800F0CA
:101F00009780012800F09880306A20F0010030624C
:101F1000306A20F0040092E00020C4F24220002148
:101F2000C0F88014FFF75EFD054600BF706A8007A9
:101F30007FF56CAFFFF756FD401B0228F6D9C6E0CF
:101F40000027C4F2422700203866FFF74BFD022D20
:101F500005460BD13068800140F1BE80FFF742FD9D
:101F6000401B02284FF00300F4D968E73068800175
:101F70007FF564AFFFF736FD401B02284FF00300EA
:101F8000F4D95CE740F24800C2F20000006844F671
:101F9000D351C1F26201A0FB0101480A019000BFC8
:101FA00000BF0198411E002801913FF42FAF00BFF0
:101FB0000198411E002801913FF428AF00BF01980D
:101FC000411E002801913FF421AF00BF0198411E3E
:101FD00000280191E4D119E700210160FFF702FD1B
:101FE000054600BF306880077FF50DAFFFF7FAFCAC
:101FF000401B02284FF00300F4D920E7306A20F09C
:1020000001003062306A20F004003062FFF7EAFC21
:10201000054641F2883700BF306A800720D5FFF7B8
:10202000E1FC401BB8424FF00300F5D907E700BFC1
:10203000306A40F004003062306A40F001003062E3
:10204000FFF7D0FC054641F2883700BF306A8007B1
:1020500006D4FFF7C7FC401BB842F7D937E000BFF2
:10206000B8F1000F7FF4D5AEF06920F08050F06138
:10207000CFE600BF306820F480303060306820F454
:1020800080203060FFF7AEFC054600BF306880035B
:102090007FF59DAEFFF7A6FC401B64284FF00300C0
:1020A000F4D9CCE6306840F480203060306840F4E9
:1020B00080303060FFF796FC054600BF3068800333
:1020C0003FF585AEFFF78EFC401B6428F6D9032050
:1020D00002B0BDE8F08100BF206AB0F5803F05D1B5
:1020E0007168A26821F40031114371607168626AFD
:1020F00021F4741110430843706001203866FFF723
:1021000071FC0446306880013FF598AEFFF76AFC29
:10211000001B02284FF00300F4D990E6411E002076
:10212000B0EB116F1CBF012070474EF21002CEF2CF
:10213000000251604EF62351CEF20001F0230B70E5
:1021400007219060116070477047000070470000E1
:1021500010B590F83C20012A4FF002023FD080F8E1
:102160003D200268D2F804E0D2F808C00C682EF0D6
:102170007003234340F6FF34C4F20004A2425360CC
:1021800010DCB2F1804F1FD040F20043C4F20003D4
:102190009A4219D040F60003C4F200039A4213D0C9
:1021A00017E000BF40F60043C4F200039A420BD090
:1021B00043F20043C4F201039A4205D042F60043C1
:1021C000C4F201039A4204D149682CF080031943F8
:1021D00091600121002280F83D1080F83C201046DB
:1021E00010BD0000002804BF0120704710B5044650
:1021F00090F83D0028B9002084F83C00204600F00B
:1022000085F8022084F83D00206840F6FF3302681C
:10221000C4F2000343F2004C9842C4F2010C21DCEA
:10222000B0F1804F2CD040F20041C4F2000188424E
:1022300026D040F60001C4F20001884220D0984226
:1022400024DCB0F1804F2FD040F20041C4F20001F5
:10225000884229D040F60001C4F20001884223D010
:1022600026E000BF40F60041C4F20001884207D0DA
:10227000604505D042F60041C4F201018842DED13A
:10228000A16822F070020A439842DADD40F600416C
:10229000C4F20001884207D0604505D042F60041F3
:1022A000C4F20101884203D1216922F440720A4339
:1022B000A36922F08001D4F804E0E2681943604584
:1022C0000160C262C0F828E005D042F60041C4F2C5
:1022D0000101884201D1616901630121416100204E
:1022E00084F8461084F83E1084F83F1084F84010BB
:1022F00084F8411084F8421084F8431084F84410A4
:1023000084F8451084F83D1010BD000080B586B0FB
:102310000068002100F140404FEAB02005280591F7
:1023200029D8DFE800F0032B43285B7341F21C003F
:10233000C4F20200016841F001010160016801F08E
:1023400001010191019950F8041C41F0040140F889
:10235000041C50F8040C02A900F00400019001983C
:10236000012002900020CDE9030040F60000C4F2F5
:102370000100FFF72FFA06B080BD00BF41F21C003C
:10238000C4F202000168002241F00201016000680D
:10239000002100F00200019001981D20FFF7A0FB32
:1023A0001D2006B0BDE88040FFF78ABB41F21C004B
:1023B000C4F202000168002241F0040101600068DB
:1023C000002100F00400019001981E20FFF788FB17
:1023D0001E2006B0BDE88040FFF772BB41F21C0032
:1023E000C4F202000168002241F01001016000689F
:1023F000012100F01000019001983620FFF770FBDA
:10240000362006B0BDE88040FFF75ABB41F21C0001
:10241000C4F202000168002241F02001016000685E
:10242000012100F02000019001983720FFF758FBB0
:10243000372006B0BDE88040FFF742BB90F83D1062
:1024400001291CBF01207047022180F83D1000685F
:1024500040F6FF31C4F2000188420FDCB0F1804F3A
:102460001ED040F20041C4F20001884218D040F66C
:102470000001C4F20001884212D018E040F6004189
:10248000C4F2000188420BD043F20041C4F20101C2
:10249000884205D042F60041C4F20101884206D1CB
:1024A000816801F00701062904BF00207047016818
:1024B00041F00101016000207047000090F83D10DC
:1024C00001291CBF01207047022180F83D100068DF
:1024D00040F6FF32C168C4F20002904241F00101AF
:1024E000C1600FDCB0F1804F1ED040F20041C4F259
:1024F0000001884218D040F60001C4F20001884271
:1025000012D018E040F60041C4F2000188420BD01E
:1025100043F20041C4F20101884205D042F6004175
:10252000C4F20101884206D1816801F00701062941
:1025300004BF00207047016841F0010101600020E4
:10254000704700000146006841F21113C26822F092
:102550000102C260026A1A4204D00122002081F8FE
:102560003D207047026A40F244431A42F5D10268A6
:1025700022F0010202600122002081F83D20704714
:1025800080B590F83C20012A4FF0020200F0BF8095
:1025900080F83D20D0F800C04FF67772DCF80830A4
:1025A00023EA0202CCF808200B683F2B1CDD5F2BCE
:1025B00020DD602B50D0B3F5005F6DD0702B40F064
:1025C000A080D1E901E3C968DCF8082043EA0E03E2
:1025D00022F47F4243EA01211143CCF80810DCF8D1
:1025E000081041F077018AE01F2B29DC63B3102B20
:1025F0002AD086E0402B63D0502B40F08280D1F867
:1026000004E0C968DCF82030DCF8202022F0010268
:10261000CCF82020DCF8182022F0F00242EA011168
:1026200023F00A0242EA0E02CCF81810CCF820205F
:10263000DCF8081041F0570121F020015FE000BFF5
:10264000202B01D0302B5CD1DCF8081021F0700178
:10265000194341F0070152E0D1F804E0C968DCF801
:10266000203023F01003CCF82030DCF81830DCF8F0
:10267000202023F4704322F0A00243EA013142EA11
:102680000E12CCF81810CCF82020DCF8081041F01D
:10269000670121F0100132E0D1E901E3C968DCF8FB
:1026A000082043EA0E0322F47F4243EA012111434A
:1026B000CCF80810DCF8081041F480411FE000BF9E
:1026C000D1F804E0C968DCF82030DCF8202022F0E2
:1026D0000102CCF82020DCF8182022F0F00242EAB7
:1026E000011123F00A0242EA0E02CCF81810CCF8CD
:1026F0002020DCF8081041F0470121F03001CCF82F
:1027000008100121002280F83D1080F83C2010467E
:1027100080BD00007047000010B5016804460869DC
:10272000800744BFC8685FEA807039D408694007F1
:1027300044BFC8685FEA40703ED40869000744BFE0
:10274000C8685FEA007045D40869C00644BFC8681D
:102750005FEAC0604AD40869C0071CBFC8685FEA66
:10276000C07051D10869000644BFC8685FEA0060C4
:1027700052D40869400644BFC8685FEA406053D439
:102780000869800646BFC8685FEA806010BD6FF0C8
:10279000200220460A61BDE81040FFF7D7BC00BF09
:1027A0006FF002000861012020778869800743D01C
:1027B0002046FFF7AFFF45E06FF0040008610220FC
:1027C0002077886910F4407F40D02046FFF7A2FFB1
:1027D00042E000BF6FF00800086104202077C8695C
:1027E00080073DD02046FFF795FF3FE06FF01000D7
:1027F000086108202077C86910F4407F3AD020464D
:10280000FFF788FF3CE000BF6FF001000861204641
:1028100000F03EF82168A5E76FF0800008612046CF
:10282000FFF792FC2168A4E76FF0400008612046A2
:1028300000F014F92168A3E7204600F025F82046AF
:1028400000F024F82168002020776FE7204600F090
:102850001BF8204600F01AF82168002020776CE76A
:10286000204600F011F8204600F010F82168002002
:10287000207769E7204600F007F8204600F006F8C8
:1028800021680020207766E770470000704700004D
:10289000B0B54BF2C811C2F2000188420ED04BF223
:1028A0002804C2F200046178D1B14BF28012C2F266
:1028B0000002904208BF012944D0B0BD4BF238104D
:1028C000C2F2000000684BF25401406AC2F20001FB
:1028D00008602420C4F2000000210160B0BD00BFE8
:1028E0004BF21021C2F2000188423DD04BF2582138
:1028F000C2F20001884218BFB0BD6189608C4218E5
:102900006189B2F5807F55D3084444F6C031C0F6E2
:10291000000101EB40004FF60061CFF6FF71435A12
:102920004BF25800C2F20000102100220025FEF7F1
:1029300067FC6089B0F5807F28BF658160890130C0
:102940006081B0BD00F096FB4AF6C072C2F2000290
:1029500001200321012300F071FFE1880120BDE87F
:10296000B04001F0D7B800BF2189E08A4218218920
:10297000B2F5807F32D3084444F6C031C0F600017E
:1029800001EB40004FF60061CFF6FF71435A4BF266
:102990005800C2F20000002100220025FEF730FCA2
:1029A0002089B0F5807F28BF2581208901302081D2
:1029B000B0BD00BF084444F6C031C0F6000131F894
:1029C00010304BF25800C2F2000010210022FEF736
:1029D00017FC608901306081B0BD00BF084444F637
:1029E000C031C0F6000131F810304BF25800C2F28D
:1029F000000000210022FEF703FC20890130208125
:102A0000B0BD0000B0B5044690F83C0001284FF07E
:102A1000020008BFB0BD012584F83C5084F83D0099
:102A2000206800F0CFFD00284FF0010006D0002103
:102A300084F83D5084F83C10B0BD00BF2068C168E8
:102A400021F04001C160C16821F48041C1600020D3
:102A5000002184F83D5084F83C10B0BD7047000060
:102A60007047000010B501680446486994F83D209D
:102A7000212A12D110F080000FD0486920F0800088
:102A80004861606B10B1FEF70BFC2168C86820F04C
:102A9000C000C860202084F83D00486994F83E20BA
:102AA000222A1FD110F040001CD0486920F04000BD
:102AB0004861A06B10B1FEF7F3FB2168C86820F4F1
:102AC0009070C860486920F001004861206B0128BF
:102AD00003D1C86820F01000C860202084F83E00B0
:102AE00000202063002010BD70470000B0B582B008
:102AF000026805461068D368546900F02F01202948
:102B000003F0200106D129B1284602B0BDE8B0404B
:102B100000F02ABE5FEA007C1EBF04F0010E03F441
:102B2000907414EB0E0455D1296B012905D110F0D6
:102B3000100118BF13F0100136D1010622D513F091
:102B400080011FD095F83D00212841D1A868B0F53B
:102B5000805F03D12869002800F0F680286A411CB4
:102B6000296200785060E88C01380104E8842FD194
:102B7000D06820F08000D060D06840F04000D06085
:102B800002B0B0BD400623D513F0400020D0D0687D
:102B9000202120F04000D060284685F83D1002B08A
:102BA000BDE8B04000F062BA0020019010680190CA
:102BB0005068019001985069400613D4A88DE98DA2
:102BC000EB8D002B1CBF401A5FEA004140F0A4804F
:102BD00002B0B0BDC40718BF13F480732CD14307F3
:102BE00030D436E0A86B01684B689CB2002CEFD063
:102BF000A98D8C42ECD2EB858369202B17D0D1684C
:102C000021F48071D160516921F001015161516954
:102C100021F040015161202185F83E1000212963F7
:102C2000D16821F01001D160FEF73AFBA98DE88D43
:102C3000081A81B2284682E02B6C43F001032B6412
:102C4000430706D5BEF1000F03D02B6C43F00203FF
:102C50002B64830706D5BEF1000F03D02B6C43F025
:102C600004032B64BCF1000F06D551EA0E0303D018
:102C70002B6C43F008032B642B6C002BA8D010F0B6
:102C8000200018BF002903D0284600F06DFD2A68F7
:102C90005069296C00F0400001F0080140182DD067
:102CA000D06820F49070D060506920F0010050612D
:102CB000286B012803D1D06820F01000D0602020BC
:102CC00085F83E0000202863506940061ED55069F3
:102CD00020F040005061A86BC0B143F29161C0F692
:102CE00000014163FEF700FB00283FF471AFA86BC1
:102CF000416B02B0BDE8B040084700BF2846FFF76F
:102D0000F3FE0020286402B0B0BD00BF284602B028
:102D1000BDE8B040FFF7E8BED16821F49071D16002
:102D2000516921F001015161202185F83E100021F7
:102D30002963D16821F0100381B22846D36002B024
:102D4000BDE8B040FFF78CBE286A30F8021B6FF375
:102D50005F215160286206E7002804BF0120704708
:102D600010B5044690F83D0028B9002084F83C00D6
:102D7000204600F05FF8242084F83D002068D4E964
:102D80000212C36823F40053C360036923F4405361
:102D90001A430261D4E904231143C268194341F282
:102DA0000C639A431143C1604169A26921F44071E7
:102DB000114343F60002C4F201029042416103D084
:102DC000FEF7AAFF02E000BFFEF7BAFF6268192112
:102DD00048439100B0FBF1F048F21F51C5F2EB11EE
:102DE000A0FB01235A096FF0630302FB03003223A7
:102DF00003EB0010A0FB0101F02303EA511320684C
:102E000003EB0212C1F3431111448160016921F403
:102E100090410161416921F02A014161C16841F499
:102E20000051C16000202021206484F83D1084F806
:102E30003E1010BDF0B585B00446006844F2004174
:102E4000C4F20001002788420497CDE90277019778
:102E500038D043F60001C4F20101884240F081807D
:102E600041F21800C4F20200016840F6000441F487
:102E7000804101600168C4F2010401F480410091C5
:102E80000099016801AD41F0040101600068294624
:102E900000F00400009000984FF4007001900220B0
:102EA0000290032004902046FEF794FC4FF48060CB
:102EB00001900020CDE9020020462946FEF78AFC59
:102EC00005B0F0BD41F21800C4F20200416840F6BE
:102ED000000541F4003141604168C4F2010501F48C
:102EE000003100910099016801AE41F004010160D8
:102EF0000068314600F00400009000980420019022
:102F000002200290032004902846FEF763FC08206C
:102F1000CDE90107284631460397FEF75BFC4BF2EB
:102F2000F4056C20C2F20005C4F2020080212022C8
:102F3000C5E900072846C5E90271C5E90477C5E976
:102F40000627FEF7B1FB002818BFFEF7A9F82620D8
:102F500000210022A5636C62FEF7C2FD2620FEF769
:102F6000AFFD05B0F0BD000070B582B0054690F829
:102F70003E0020280ED113460A4600294FF00104D6
:102F800018BF002B02D1204602B070BD95F83C005E
:102F9000012803D10224204602B070BD012085F82B
:102FA0003C00002422202C63AA62AB852C6485F8A7
:102FB0003E002968A86B43F2097C43F2557E43F238
:102FC0009D66C0F6000CC0F6000EC0F60006043187
:102FD000C0E90ACEC0E90C64FEF7AEFB0194286894
:102FE0000168019141680191019985F83C40C168EF
:102FF00041F48071C160416941F001014161416961
:1030000041F040014161204602B070BD034690F896
:103010003E0020280AD100294FF0010018BF002AE5
:1030200000D1704793F83C00012801D1022070477D
:1030300000201863996222219A85DA85186483F842
:103040003E10196883F83C00CA6842F48072CA6076
:103050004A6942F001024A61CA6842F02002CA602D
:103060007047000070470000704700007047000084
:10307000FEE7000010B541F20004C4F2010420464E
:1030800020210022FEF7A8FC204620210122FEF785
:10309000A3FC204620210022BDE81040FEF79CBC86
:1030A000B0B541F20004C4F2010420464FF480514F
:1030B0000022FEF791FC204680210122FEF78CFCC5
:1030C00020464FF480710022FEF786FCA4F50060D4
:1030D0004FF400410022FEF77FFCA4F580652846EE
:1030E00008210022FEF778FC284610210022FEF776
:1030F00073FC284620210022FEF76EFC2846402162
:103100000022FEF769FC284680210022FEF764FCBD
:1031100020464FF480610022FEF75EFC20464FF40B
:1031200000610022FEF758FC20464FF40071002297
:10313000BDE8B040FEF750BC80B582B002200190DF
:10314000042000904BF2580047F20041C2F2000008
:10315000C4F200010160FDF7CFFF002818BFFDF7A2
:103160009FFF4BF25800C2F2000069460022FDF7B3
:103170009DFF002818BFFDF793FF142000904BF22D
:103180005800C2F2000069461022FDF78FFF0028A8
:1031900018BFFDF785FF02B080BD000080B582B08A
:1031A00041F21400C4F202000168002241F0010162
:1031B0000160016801F0010101910199016841F08C
:1031C000020101600068002100F0020000900098F8
:1031D0001020FEF785FC102002B0BDE88040FEF70D
:1031E0006FBC00002DE9F04F85B041F21800C4F229
:1031F0000200016840F6000841F02001016001680A
:10320000C4F2010801F0200101910199016808F55B
:10321000006641F0100101600168002201F0100118
:103220000191019901680F2441F0040101600168D6
:103230004FF0000901F0040101910199016841F08A
:103240000801016000680F2100F00800019001985A
:103250003046FEF7C1FB08F5806738464FF47C41E5
:103260000022FEF7B9FB40464FF480710022FEF7C2
:10327000B3FB08F54065284604210022FEF7ACFBAD
:10328000019401AC4FF0010A4FF0020B3046214689
:10329000CDE902A9CDF810B0FEF79CFA4FF47C40BE
:1032A000CDE9010A38462146CDE9039BFEF792FAA3
:1032B0004FF48070CDE9010A40462146CDE9039BD9
:1032C000FEF788FA0420CDE9010A28462146CDE917
:1032D000039BFEF77FFA05B0BDE8F08F10B588B00C
:1032E0004BF238100024C2F200004FF080414FF63C
:1032F000FF720694CDE90044C0E90014C0E902421F
:1033000004618461FEF76EFF002818BFFDF7C8FE58
:10331000072003905020CDE904044BF23810C2F28C
:10332000000003A90794FFF76DFB002818BFFDF705
:10333000B7FE0020CDE900004BF23810C2F20000C9
:103340006946FEF705FF002818BFFDF7A9FE08B083
:1033500010BD000080B586B04BF2801040F20042F4
:103360000021C2F20000C4F20002472342F20F7CA7
:103370000591CDE90311CDE90011C0E90023C0E9B1
:10338000021C01618161FEF72DFF002818BFFDF7C7
:1033900087FE4FF4805002904BF28010C2F2000082
:1033A00002A9FFF7EDF8002818BFFDF779FE4BF2F0
:1033B0008010C2F200006946FEF7CAFE002818BF5E
:1033C000FDF76EFE06B080BD80B586B04BF2C8102A
:1033D00040F600020021C2F20000C4F2000241F6F1
:1033E0001F4342F20F7C0591CDE90311CDE9001195
:1033F000C0E90023C0E9021C01618161FEF7F2FE11
:10340000002818BFFDF74CFE4FF4805002904BF29D
:10341000C810C2F2000002A9FFF7B2F8002818BFD6
:10342000FDF73EFE4BF2C810C2F200006946FEF7FF
:103430008FFE002818BFFDF733FE06B080BD0000E8
:1034400080B582B0202000904BF210200021C2F203
:10345000000041F200024FF0640C0191C4F200023E
:103460004723C0E9021C8021C0E900238161FEF7E7
:10347000B9FE002818BFFDF713FE4BF21020C2F270
:1034800000006946FEF764FE002818BFFDF708FE3D
:1034900002B080BD80B582B0202000904BF2582051
:1034A0000021C2F2000041F200424FF0640C019191
:1034B000C4F200024723C0E9021C8021C0E90023B6
:1034C0008161FEF78FFE002818BFFDF7E9FD4BF282
:1034D0005820C2F200006946FEF73AFE002818BFE5
:1034E000FDF7DEFD02B080BD80B54BF2A02043F6B3
:1034F0000001C2F20000C4F2010100234FF00C0CE5
:103500004FF4165280E80E00C0E90333C0E905C34A
:10351000C361FFF721FC002808BF80BDBDE88040E3
:10352000FDF7BEBD10B54BF2E42444F20040C2F2F8
:103530000004C4F200004FF4E13100220C2384E8BF
:1035400007002046C4E90322C4E90532E261FFF71F
:1035500003FC002818BFFDF7A3FD23684BF22A31B6
:10356000D868C2F2000140F0100C2046C822C3F80F
:103570000CC0BDE81040FFF7F7BC0000FEE70000FC
:10358000FEE700007047000070470000FEF730BA09
:10359000704700004BF28010C2F20000FFF7BCB889
:1035A0004BF2C810C2F20000FFF7B6B84BF2102081
:1035B000C2F20000FFF7B0B84BF25820C2F2000090
:1035C000FFF7AAB880B5826822F0770ED1E900C271
:1035D00022F0070343EA0E0343EA0C0E6FF00303E5
:1035E00003EB3213032BC0F808E015D8DFE803F033
:1035F00002162C42BCF1050F04BF012080BD026AF7
:10360000036A23F0010303628369096923F0F0036D
:1036100043EA011181610262002080BDD1F808C037
:103620000969036A026A22F001020262826922F0D9
:10363000F00242EA011123F00A0242EA0C0281611F
:103640000262002080BD00BFD1F808C00969036A8A
:1036500023F0100303628369026A23F4704322F0AB
:10366000A00243EA013142EA0C12816102620020A9
:1036700080BD00BFD1E902C30969826843EA0C0337
:1036800022F47F4243EA012111438160002080BD82
:10369000406A0021C185C184FFF726BA406A0168EB
:1036A0004A6990F83D30212B0BD112F0800208D0EE
:1036B0000022C284CA6822F0C002CA60202280F8B8
:1036C0003D204A6990F83E30222B17D112F040027B
:1036D00014D00022C285CB6823F49073CB604B6971
:1036E00023F001034B61036B012B03D1CB6823F063
:1036F0001003CB60202180F83E100263016C41F082
:1037000010010164FFF7F0B90168406A0968890691
:1037100018D40021C1850168CA6822F48072CA6089
:103720004A6922F001024A614A6922F040024A6174
:10373000202280F83E20026B012A03D1CA6822F0C1
:103740001002CA60016B012918BFFFF78BBC818D85
:10375000FFF786B9406A016B012918BFFFF784BCE7
:10376000818D4908FFF77CB981B090F83E1022297D
:1037700020D18368B3F5805F08D10169002941D069
:1037800000F128010A6803685B680AE0014651F805
:10379000282F13B90369002BF5D003685B6803F089
:1037A0007F0313700A6801320A60C18D01390A046F
:1037B000C18501D001B070470168CA6822F02002BB
:1037C000CA60CA6822F48072CA604A6922F00102A3
:1037D0004A61202280F83E20026B012A1CD100227F
:1037E0000263CB6823F01003CB600B68DB0605D5C2
:1037F00000920A680092496800910099818D01B099
:10380000FFF72EB90168826A49686FF35F2122F8D9
:10381000021B8262C9E700BF01B0FFF723BC0000B2
:1038200080B500F057FE4BF2E420C2F20000BDE884
:103830008040FFF75BB90000FEE700002DE9F0478C
:1038400041F20004C4F2010491468A46054620462E
:103850004FF4807100229846FEF7BEF82046802182
:103860000022FEF7B9F820464FF480710022FEF7DF
:10387000B3F8A4F58067EA0938468021FEF7ACF872
:1038800020464FF480710122FEF7A6F820464FF43F
:1038900080710022FEF7A0F8C5F38012384680211F
:1038A000FEF79AF820464FF480710122FEF794F853
:1038B00020464FF480710022FEF78EF8C5F34012C7
:1038C00038468021FEF788F820464FF480710122A7
:1038D000FEF782F820464FF480710022FEF77CF854
:1038E000C5F3001238468021FEF776F820464FF4E3
:1038F00080710122FEF770F820464FF4807100229B
:10390000FEF76AF8C5F3C00238468021FEF764F876
:1039100020464FF480710122FEF75EF820464FF4F6
:1039200080710022FEF758F8C5F3800238468021E6
:10393000FEF752F820464FF480710122FEF74CF852
:1039400020464FF480710022FEF746F8C5F340028E
:1039500038468021FEF740F820464FF4807101225E
:10396000FEF73AF820464FF480710022FEF734F853
:1039700005F0010238468021FEF72EF820464FF46C
:1039800080710122FEF728F820464FF48071002252
:10399000FEF722F8BAF1000F00F09D80A9F10105B1
:1039A00015F8016F20464FF480710022FEF714F8DD
:1039B000F20938468021FEF70FF820464FF4807157
:1039C0000122FEF709F820464FF480710022FEF72D
:1039D00003F8C6F3801238468021FDF7FDFF20462C
:1039E0004FF480710122FDF7F7FF20464FF48071FC
:1039F0000022FDF7F1FFC6F3401238468021FDF7A3
:103A0000EBFF20464FF480710122FDF7E5FF2046D1
:103A10004FF480710022FDF7DFFFC6F30012384635
:103A20008021FDF7D9FF20464FF480710122FDF778
:103A3000D3FF20464FF480710022FDF7CDFFC6F37F
:103A4000C00238468021FDF7C7FF20464FF4807141
:103A50000122FDF7C1FF20464FF480710022FDF7DF
:103A6000BBFFC6F3800238468021FDF7B5FF204634
:103A70004FF480710122FDF7AFFF20464FF48071B3
:103A80000022FDF7A9FFC6F3400238468021FDF76A
:103A9000A3FF20464FF480710122FDF79DFF2046D1
:103AA0004FF480710022FDF797FF06F001023846BF
:103AB0008021FDF791FF20464FF480710122FDF730
:103AC0008BFF20464FF480710022FDF785FFBAF18D
:103AD000010A7FF465AFB8F1000F13D0A4F50065BB
:103AE00028464FF400410022FDF776FF28464FF4A8
:103AF00000410122FDF770FF28464FF400410022EB
:103B0000FDF76AFF204680210122BDE8F047FDF75E
:103B100063BF000010B54BF24E04C2F2000449BA74
:103B20000328618088BF10BD44F66031C0F60001F3
:103B300051F82020002001210123FFF77FFEA21C65
:103B4000052002210123BDE81040FFF777BE0000E9
:103B500010B582B00446084600F0E9FE4DF29562C9
:103B600042F60B63CEF62602C4F2210300F0F2FE09
:103B700000F0B0FE00BA032C019010D844F660307B
:103B8000C0F6000050F82420002001210123FFF797
:103B900055FE01AA042004210123FFF74FFE02B0C5
:103BA00010BD0000B0B582B04BF2C810C2F20000E8
:103BB000FEF784FC4BF23810C2F20000FEF73EFC28
:103BC0004BF2E4204BF22A31C2F20000C2F20001B3
:103BD000C822FFF71BFA4BF25804C2F20004204639
:103BE00000210025FDF720FB20461021FDF71CFBDE
:103BF00044F20004C4F28F04002021460022012375
:103C00000095FCF7ABFD0020214600220123009522
:103C1000FCF7EEFD5020FCF75BFB5020FCF794FC1A
:103C200002B0BDE8B040FDF7FDB8000070B54BF242
:103C30002805C2F20005687801280DD0002818BFB9
:103C400070BD40F24C00C2F200000078052829D275
:103C50002621472226205EE0049CBDF81660002045
:103C60006980AC80FFF774FF01202146FFF770FFE9
:103C700040F24C00C2F200000078042818D84BF241
:103C800080103E2EC2F2000064DD3F2E00F08C80DA
:103C90005F2E69D07F2E40F0E58042F2C81442F2D8
:103CA000C816D1E00A2819D221204321282232E067
:103CB000092817D84BF280103E2EC2F200006BDDAF
:103CC0003F2E00F08D805F2E4ED07F2E40F0CA80B8
:103CD00042F2C81641F2C714B6E000BF0F2815D251
:103CE000542016E00E2845D84BF280103E2EC2F22A
:103CF00000006DDD3F2E00F087805F2E00F08A808F
:103D00007F2E40F0AF8042F2C81695E0132812D8FB
:103D1000A920FE210A224BF21023C2F200031E68E2
:103D20004BF25825C2F20005B2622C68A262F16221
:103D3000D960E062E8604BF21020C2F20000FEF7AA
:103D4000BDFB4BF25820C2F20000BDE87040FEF708
:103D5000B5BB00BF76B31F2E40F0848040F6C71479
:103D600040F6C71670E000BF41F6C81441F6C81609
:103D70006AE000BF132823D84BF280103E2EC2F217
:103D8000000039DD3F2E51D05F2E53D07F2E69D1F8
:103D900042F2C81656E000BF46B31F2E62D140F66D
:103DA000C71641F6C8144FE041F2C71441F2C716D6
:103DB0004AE000BF40F2C71440F2C71644E000BF1B
:103DC0004BF28010C2F20000BDE87040FEF776BBF7
:103DD00036B31F2E46D140F6C71641F6F51433E030
:103DE00041F2C71642F2C8142EE000BF40F2C716D7
:103DF00041F2C71428E000BF16B31F2E32D140F69F
:103E0000C71641F2C7141FE041F2C71641F2B04491
:103E10001AE000BF41F6C81640F6E83414E000BFCF
:103E200040F2C71642F2C8140EE000BF41F2C716B6
:103E300008E000BF41F6C81640F2C71404E000BF16
:103E400040F2C71640F6C714002040F2C711FFF732
:103E500061FE01202146FFF75DFE4BF28010C2F2A9
:103E60000000EE80BDE87040FEF728BBF0B583B0DF
:103E700000F0F2FA4BF22804C2F20004207828B1D4
:103E8000012800F0ED8003B0F0BD00BF40F24C010E
:103E90004BF25400C2F20001C2F20000097800683F
:103EA0001329E060A06100F2D78004290AD839D82C
:103EB000DFE801F004543C444C0000BF5021C4E949
:103EC000040151E009290DD8053904292AD8DFE871
:103ED00001F0036351575D005021C4E90401430020
:103EE00086E000BF0E290DD80A3904291AD8DFE868
:103EF00001F00359636D77005021C4E9040100EB20
:103F0000400375E00F3904290CD8DFE801F0037590
:103F10007F89930041005022C4E9041200EB400362
:103F200091E000BF2169E3698FE000BF5021C4E93F
:103F300004015021C0F23F0116E000BF5021C4E946
:103F400004015021C0F25F010EE000BF5021C4E91E
:103F500004015021C0F27F0106E000BF5021C4E9F6
:103F600004015021C0F21F01C4E9070103460146C4
:103F70006BE000BF50214300C4E9040121E000BF11
:103F800050214300C4E9040125E000BF5021430053
:103F9000C4E9040129E000BF50214300C4E9040141
:103FA00005E000BF5021C4E9040100EB40035021AB
:103FB000C0F21F011CE000BF5021C4E9040100EB66
:103FC00040035021C0F23F0112E000BF5021C4E97C
:103FD000040100EB40035021C0F25F0108E000BF84
:103FE0005021C4E9040100EB40035021C0F27F01DD
:103FF000C4E90731014628E041005022C4E9041217
:10400000502200EB4003C0F21F021CE0410050228E
:10401000C4E90412502200EB4003C0F23F0212E058
:1040200041005022C4E90412502200EB4003C0F2C8
:104030005F0208E041005022C4E90412502200EB64
:104040004003C0F27F02C4E907326269266A009326
:1040500003460196FFF7EAFD207801287FF413AFAD
:104060004BF25804C2F20004204600210025FDF75F
:10407000DBF820461021FDF7D7F840F24C00C2F2E1
:10408000000000781438C0B20D283FF6FCAE44F6AC
:104090007031C0F6000151F820704BF22836C2F2A0
:1040A0000006386831884BF2580430F81130C2F2FB
:1040B0000004204600210022FDF7A2F8386831886C
:1040C000002200EB4100B0F8403620461021FDF7F9
:1040D00097F8308839680130D1F8801C82B291425B
:1040E00088BF0546358003B0F0BD0000F0B583B051
:1040F00005464BF28010C2F20000FEF723FA4BF2A5
:104100001020C2F20000FEF71DFA4BF25820C2F256
:104110000000FEF717FA4BF25804C2F200042046E2
:104120000021FDF7ADF820461021FDF7A9F8287809
:104130004BF2280741383328C2F2000700F29A8078
:10414000DFE810F034003A00400046004C00520016
:1041500058005E0064006A00700076007C008200F7
:104160008A0098009800980098009800980098009D
:10417000980098009800980098009800980098007F
:1041800098009800A000A800AE00B400BA00C000DB
:10419000C600CC00D200D800DE00E400EA00F00047
:1041A000F600FC00020108010E01140140F24C006F
:1041B000C2F2000014214CE040F24C00C2F20000B8
:1041C000152146E040F24C00C2F20000162140E00A
:1041D00040F24C00C2F2000017213AE040F24C00DD
:1041E000C2F20000182134E040F24C00C2F200009C
:1041F00019212EE040F24C00C2F200001A2128E002
:1042000040F24C00C2F200001B2122E040F24C00C0
:10421000C2F200001C211CE040F24C00C2F200007F
:104220001D2116E040F24C00C2F200001E2110E0F9
:1042300040F24C00C2F200001F210AE040F24C00A4
:10424000C2F20000202104E040F24C00C2F2000063
:1042500021210170012090E07878B0FA80F04009C7
:10426000787040F600450128C4F2010540F08E80C8
:1042700001268DE040F24C00C2F20000C82101701E
:104280007CE000BF40F24C00C2F20000002101704F
:10429000397073E040F24C00C2F2000001216AE084
:1042A00040F24C00C2F20000022164E040F24C00F7
:1042B000C2F2000003215EE040F24C00C2F20000B6
:1042C000042158E040F24C00C2F20000052152E007
:1042D00040F24C00C2F2000006214CE040F24C00DB
:1042E000C2F20000072146E040F24C00C2F200009A
:1042F000082140E040F24C00C2F2000009213AE0FF
:1043000040F24C00C2F200000A2134E040F24C00BE
:10431000C2F200000B212EE040F24C00C2F200007D
:104320000C2128E040F24C00C2F200000D2122E0F6
:1043300040F24C00C2F200000E211CE040F24C00A2
:10434000C2F200000F2116E040F24C00C2F2000061
:10435000102110E040F24C00C2F2000011210AE0EE
:1043600040F24C00C2F20000122104E040F24C0086
:10437000C2F200001321017000203870787840F6F6
:1043800000450128C4F201053FF472AF68B9002668
:1043900028464FF480613246FDF71EFB28464FF455
:1043A00000613246FDF718FB7878012838D0A8BBA9
:1043B0000020CDE90000A5F5184020602046FCF75C
:1043C0009BFE002818BFFCF76BFE4BF25800C2F2B0
:1043D000000069460022FCF769FE002818BFFCF7C0
:1043E0005FFE4BF25800C2F2000069461022FCF753
:1043F0005DFE002818BFFCF753FE4BF25804002066
:10440000C2F200043881788120460021FCF70CFFBD
:1044100020461021FCF708FF3889788103B0F0BDF1
:104420004BF25804C2F2000420460021FCF728FF9A
:1044300020461021FCF724FF4BF21020C2F20000AE
:10444000FEF780F84BF25820C2F2000003B0BDE83E
:10445000F040FEF777B80000F0B581B04BF24C06A3
:10446000C2F200067778012F22D14BF22A34C2F231
:1044700000042046FFF73AFE3078B0B1002000215A
:10448000605432784B1C93420FD2621850703378CC
:104490008D1C9D4209D290703378CD1C9D4204D270
:1044A000D070327804319142EAD3002030707070BD
:1044B000781EB0FA80F044094BF2E4204BF22A3126
:1044C000C2F20000C2F20001C822FEF74DFD2046F4
:1044D00001B0F0BD80B582B04BF2E420C2F2000022
:1044E00000680168C9061ED500210191016801918B
:1044F000416801910199016840684BF2E420C2F2E1
:104500000000FEF7AFFA4BF2F400C2F200000068C0
:104510006FF037014068081A4BF24C01C2F20001FB
:10452000087001204870012002B080BD90B0FDF7F6
:104530006DFA00240120CDE90B44CDE90944069031
:104540000A904FF4E0104FF4803102250F9006A836
:10455000CDE90714CDE90D51FDF706FC20B1EFF3CD
:10456000108072B6FEE700BF0F20CDE901054FF4C1
:104570008060CDE9040401A802210394FDF7ECFA60
:1045800020B1EFF3108072B6FEE700BFFEF72AFEFF
:10459000FEF704FEFEF7A8FFFEF7C4FFFEF79EFE3F
:1045A000FEF712FFFEF7C8FDFEF774FFFEF748FFA7
:1045B000FEF7D0FEFFF7F6FAFFF758FCFCE7000025
:1045C0002DE9C04130B4DFF8A4C23CEA111418BF91
:1045D0003CEA131400F0ED801CEA111481EA030593
:1045E00044EAD57418BF1CEA131500F0C880A4EB88
:1045F000050404F17F7404F500344FF0004545EAEA
:10460000C12145EAC32341EA505143EA52534FEADC
:10461000C0204FEAC222994208BF904200F09D801C
:104620004FEA13650FF24416765D4FEA134506FB19
:1046300005F7C7F1807706FB07F74FEAD737A7FBE7
:1046400003687642A7FB06CEC8F5803838BFA8F1CC
:10465000010807FB08E6A6FB028C4FF0000EE6FB04
:1046600003CEDCF1000CCEF1004E38BFAEF1010EEE
:10467000A6FB0C584FF00007E6FB0E87A1FB08C60F
:10468000A0FB07CE16EB0E064FF0000545F1000526
:10469000E1FB076515F1E04E7EBFA4F580345FEACB
:1046A00046066D4116F1800745F100054FEA1727D0
:1046B00047EA05674FEA15254FEA0666A6F1DE468A
:1046C000B6F1805F20D9384605EBC47124F0010CA7
:1046D00001EB0C11BCF1FE6F02D8F0BCBDE800810B
:1046E00024425CBF01F5801E9EEAC47F02D4F0BC68
:1046F000BDE80081244200F13980A1F1C041F0BC45
:10470000BDE8004100F01EBA4FEAD02040EA415017
:104710004FEAD1214FEAD22242EA43524FEAD32351
:10472000A7FB028607FB036605FB02661EEA0E0F67
:1047300058BFA6EB0056B6EB00564FEA520E4EEAB3
:10474000C37E18EB0E0E56EB530EBCD518EB0208C9
:104750005E417F1C55F10005B5E74FF480154FF021
:1047600000074FF000064FF00008ACE701F1C04130
:1047700001F000414FF00000F0BCBDE800810CEA00
:10478000131511EA0C1F00D00CE013EA0C1F00F007
:1047900026804FF0000081EA030101F00041F0BCE7
:1047A000BDE80081F0BCBDE8004181EA030100F0F2
:1047B000C9B9F0BCBDE8004170B500F075F900BFA3
:1047C000097EFC3E00F007B84FF0000081EA0301CB
:1047D00001F00041704781EA030100F0B3B9F0BC79
:1047E000BDE8004122494FF000007047FFFDFBF992
:1047F000F7F5F4F2F0EEEDEBE9E8E6E4E3E1E0DE14
:10480000DDDBDAD8D7D5D4D3D1D0CFCDCCCBCAC885
:10481000C7C6C5C4C2C1C0BFBEBDBCBBBAB9B8B7AC
:10482000B6B5B4B3B2B1B0AFAEADACABAAA9A8A89F
:10483000A7A6A5A4A3A3A2A1A09F9F9E9D9C9C9B6D
:104840009A99999897979695959493939291919018
:104850008F8F8E8E8D8C8C8B8B8A898988888787A9
:104860008685858484838382828181800000FF071E
:104870000000F87F4FEA41034FEA5353A3F58063EA
:10488000D3F11E03C8BFD3F1210C0CDD4FF0004261
:1048900042EAC12242EA505232FA03FC8CEAE17C3D
:1048A000ACEBE1707047102BC4BF0020704703F5DC
:1048B000787CBCF1FF3F04D06FF0004282EA210017
:1048C000704770B500F0F0F84992248000207047DE
:1048D000F2E700004FEA1153A3F58063D3F11E0302
:1048E000A8BFD3F1200C08DB4FF0004242EAC122FE
:1048F00052EA505232FA03F0704709420BD4102B9F
:10490000C4BF0020704703F5787CBCF1FF3F05D0A1
:104910004FF0FF3070474FF00000704770B500F067
:10492000C3F800BF4992248000207047F0E7B0FA36
:1049300080F310FA03F10AD0C3F11D0303F580637D
:104940004FEA03524FEA415002EBD12170474FF03A
:104950000000704770B5DFF848C11CEA111E1EBF89
:104960001CEA13159EEA0C0F95EA0C0F00F06F80FD
:1049700081EA03044EEAD47EAE4421EA4C1123EAD4
:104980004C1341F4801143F48013AEF17F7EA1FB00
:10499000024CA0FB0365361955EB0C05A1FB034C3B
:1049A0004CF10003A0FB021C16EB0C06654153F111
:1049B0000003094218BF46F0010613F4007F0BD133
:1049C0004FEA03314FEA053041EA155140EA1650EB
:1049D00034036FF003020AE04FEAC3214FEAC52017
:1049E00041EA555140EA5650F4026FF0020202EBE0
:1049F0002E4201EB025585EACE710AD05FEA440CE3
:104A000018BF24F0004450F1000041F1000120EAF9
:104A1000D47040F2FE7C624500D270BDA84214BF43
:104A20004FF080444FF04044002E08BF0024BEF1F8
:104A3000806FA8BFA1F1C041BDE8704080F28280C4
:104A400001F1C04101F000414FF0000070470CEA55
:104A500013159EEA0C0F18BF95EA0C0F06D081EAD9
:104A6000030E4FF000000EF0004170BD00F01CF886
:104A70008900013E00F007B800F009B84FEA430C86
:104A80005FEA5C5C08D081EA030100F05BB84FEAA2
:104A9000410C5FEA5C5CF6D102494FF000007047C0
:104AA0000000FF070000F87F0EF1020E2EF0030E4B
:104AB0005EF8046B364205D4012A43EB030515F575
:104AC000001F12D8012841EB010C1CF5001F0CD867
:104AD0000ED14FEAD17C0CEB4C0C0CF1020C15F50D
:104AE000001F08BF4CEBD37C04E04FF0080C01E042
:104AF0004FEAD37C0CEB4C0526FA05F606F00706C8
:104B0000B6F1040C06D20EEB860CBDE870404CF0FA
:104B1000010C6047DFE80CF0090B02024FF0004186
:104B2000A1F500214FF0000070BD19461046012884
:104B300051EB010418BFD4F5001484BF002001F02C
:104B4000004170BD0808A0F500114FEA310170471F
:104B500001020000022000000020000028200000C8
:104B600008000020090000200A0000200B0000209F
:104B70006000002064000020680000206C0000201D
:104B80007000002074000020780000207C000020CD
:104B900080000020840000205000002054000020ED
:104BA000580000205C000020000000000000000011
:104BB00001020304060708090000000001020304C3
:104BC00000082E085C088908B708E50812094009A2
:104BD0006D099A09C609F2091F0A4A0A760AA10A4A
:104BE000CB0AF50A1F0B480B710B990BC10BE80B95
:104BF0000E0C340C590C7D0CA10CC40CE60C080DE9
:104C0000290D480D680D860DA30DC00DDB0DF60DA9
:104C1000100E290E410E580E6E0E830E970EA90E21
:104C2000BB0ECC0EDC0EEB0EF80E050F100F1B0F9B
:104C3000240F2C0F330F390F3E0F420F440F460F36
:104C4000460F450F430F400F3C0F360F300F280F14
:104C50001F0F160F0B0FFF0EF20EE30ED40EC40E35
:104C6000B30EA00E8D0E780E630E4C0E350E1D0E7B
:104C7000030EE90DCE0DB20D950D770D580D390DC2
:104C8000180DF70CD50CB30C8F0C6B0C460C210CCB
:104C9000FB0BD40BAD0B850B5D0B340B0A0BE00A41
:104CA000B60A8B0A600A340A090ADC09B0098309CA
:104CB00056092909FC08CE08A008730845081708FA
:104CC000E907BB078D07600732070407D706AA0666
:104CD0007D0650062406F705CC05A00575054A0596
:104CE0002005F604CC04A3047B0453042C0405041F
:104CF000DF03BA03950371034D032B030903E80295
:104D0000C702A80289026B024E0232021702FD019D
:104D1000E301CB01B4019D018801730160014D01E4
:104D20003C012C011D010E010101F500EA00E1002A
:104D3000D800D000CA00C400C000BD00BB00BA004B
:104D4000BA00BC00BE00C200C700CD00D400DC0029
:104D5000E500F000FB0008011501240134014501C4
:104D6000570169017D019201A801BF01D701F0013E
:104D70000A02250240025D027A029802B802D702B6
:104D8000F8021A033C035F038303A703CC03F20377
:104D900018043F0467048F04B804E1040B053505CB
:104DA0005F058A05B605E1050E063A066606930616
:104DB000C006EE061B0749077707A407D2070008BD
:104DC00002030405060708090A0B0C0D0E0F10104C
:104DD000F04D000800000020C8AF00006C01000882
:104DE000D0740008C8AF0020300A0000D0010008CD
:104DF0002006010000001004A008204080409C0014
:104E000000042101C3FF0304610112C73913FF1F0E
:104E100004522F11100524F400C818103788000020
:104E2000200C0D002090190020142600209832003C
:104E3000201C3F0020A04B002024580020A8640024
:104E4000202C710020B07D0020348A0020B896000C
:104E5000203CA310220A0232A00272900252800269
:104E600032700292600232500252400272300232BC
:104E7000200252100272000263F0090252E0023274
:104E8000D00292C00232B00252A00272900232806E
:104E900002527002726002725002524002323002BC
:104EA00092200232100252000263F0080252E00225
:104EB00092D00212C00252B00272A002929002324C
:104EC0008002927002926002725002524002B2302E
:104ED0000252200272100292000243F00702B2E076
:104EE0000252D00272C00292B00292A002729002EC
:104EF000528002727002926002525002B24002125C
:104F00003002522002921002920002A3F0060272B6
:104F1000E002B2D00292C002B2B00272A00292903D
:104F200002B28002727002926002B25002724002BB
:104F3000923002B22002721002B2000263F0050247
:104F400092E00232D00272C00292B00252A00292EB
:104F5000900272800292700252600272500292407D
:104F60000252300292200272100292000243F004B8
:104F70000272E00292D00252C00272B00292A0020B
:104F8000529002928002727002926002525002723B
:104F9000400252300212200232100202FF000101D0
:104FA000FF0101250129E03E200403210629FA2101
:104FB000102D4A031E90100332C01A2D8C033EE0C0
:104FC0004A0312800C211C1E3090032D7E032DF805
:104FD000033E50AC033E80CA033EA0F4033E40664D
:104FE000043EC016041EF05A042D42042F9006AC55
:104FF0000410041007D008211E2DEE043E60B404F6
:105000001E00FA042DC8043EB0F0042F50075205CC
:105010003ED00E052F00082A052F20084E052FC070
:1050200007B4053E4070051E70AA052D96053E107A
:10503000F8051E90C0053EC0D2052D30063EE0FAB0
:105040000512800C211C1E303A062D2C062D8606DA
:105050003E5050061EA092062D6A062DC2063E80C6
:105060008C0612400C1EA0E0062DBA062F800914F3
:10507000073004100AD00A3E20000722E0281D2035
:10508000072F800968073E803607210C3E905A079B
:1050900012500C2C06000BF00AD07607110A3124AE
:1050A000100909500B400B200BE01632C00E2122D4
:1050B0001D0A07130B3016200B100B8009C00BB014
:1050C0000B900B26210C1004700B60081008100CBC
:1050D000000CE00BA01832800E212411AC10070C3C
:1050E000F00BE00BD0282007800C700C500C262110
:1050F0000C1008600C400C300C200C1006D00CC0BA
:105100000CA010210A212410068009F00CB0121204
:1051100090282007400D300D100D2211C430050DD0
:10512000F00CE008211612201813000D6011042164
:105130000A12F01A12501843E00C2E212223000DFF
:105140004811E0113A22D050315E12B06C12507EFC
:10515000210A111E318663100CA01200B0114A11F1
:105160009E1220CE1004D00BC0DA4004000CB0D840
:10517000110A22F0CC11F211AE111C12A0FA450650
:1051800076801C211E6532C548455E7690722DE002
:10519000081148156416A08C2DD60815643DCC085E
:1051A0001610A22DFE087650C22DF4083620D82104
:1051B0001E65EE3ED098082DCE083A900A29043E8E
:1051C000708A081A10302D78082FE008A6081930C8
:1051D000396C21183EF05C0829583EC054081A600A
:1051E000722D3A083A307A3A709889AC1AE0C02D9C
:1051F000060812B0081A10DA2DF0073E802E083E7D
:10520000C0E0072D18083E90D6071E3000034D1051
:10521000032D08034D26036D34032D92073EF080C5
:10522000075E805C032D68072DA8073E9058071E77
:105230003088032D3C073E0080075E409E032D68AA
:10524000074DB003ADC2034DD4035E50E4032DE01F
:10525000062D18072D00043240042DEA0602FF0037
:105260000101FF010D2540064C050B0200007E0CDC
:10527000FEA0860CE102D2800202277002021360B7
:1052800002F25002B24002FE30E00C6DE40CD2009B
:1052900002ADE20C72D0026DDC0C4DD60CD2800255
:1052A000021B70020211600202235002D24002026D
:1052B0001730020D10300DA102D20002ED420D0E8A
:1052C00011E04C0D52C00292B0020E13A0540D9288
:1052D00080020D16520D0E1140500D0D104C0DDEBA
:1052E00010480DBEF0400D8D440D0D1A3C0DAD382B
:1052F0000D0D10320DDE50300D9E30360D0D10327A
:105300000DCD280DAD1C0DAD0E0DAD040DADF80C81
:10531000ADEA0CEDE20C0D12DC0C0D10D60C0E15E6
:10532000D0D60CDEA0D20CFE80CE0CADC80CADBC2D
:105330000CEDB80CEDB20C0D10AC0CEDAE0CADA23A
:105340000CDE90A20C02FF6002011002AD9E0D0166
:10535000FF02F102FD45063D120C4DE6081D420C10
:105360005D0E093C042007A05C034D520C3D5E0C11
:105370003DEA031260182DD0085004F005A0282D36
:10538000440CA1427290381E30F6082D20104D704A
:10539000095E80620C2D920310040006B0163ED008
:1053A00050042F900788031ED03E101D6E041D1858
:1053B000092DEA0C3D120D3DB2093FE00710101D0A
:1053C000E0094E700E104C04083005E0092F30083B
:1053D0002E092D50032F60084C032D0C0A2FF004CA
:1053E000140A2D5A031C09D0049008C004A008F028
:1053F0000F4C0608A004C008DA0B1004700BD00E86
:105400002D44035E00DA0B2D000C2D040B4D000B18
:105410001F000BC20C1D5A032D560B1C04000C70F0
:105420005A0C2DFE0A2D760A1270144D520B5D4E49
:105430000B3D380C413A1004100BC0242DB00A1D4E
:1054400020103D240C42F04C1D380B7E702C0C2D8E
:10545000480B4DC40C1270523F6004D20B2E0ADE72
:105460000A4C056004800C300B1D16142E095C10CC
:105470001C043004C0460C21222DF00C1250101CCC
:1054800006B00C300A602E0D21184D260D4D3E0D34
:105490002F3004320C1F000A380B2E043E0C6C0710
:1054A00070092004F00C780B2C072004000D000A72
:1054B00036141DE20C2E048E0C3004000DD00A2D83
:1054C000820C2D840D2F0004940D2F00047E0C21DE
:1054D0000E2C0BF003E003500D9009D0038E0B212E
:1054E000101C07D003700D500DA40D110A41083097
:1054F00006C003800D601212E00C210A3008C003C0
:10550000A00D900D700A2106210E3280181004B0F3
:1055100003B0161004B003903A42D00E420D0C12A4
:10552000A06212D04C1108213251066005D00DC086
:105530000D0A42A05A111421443004C003904C219A
:1055400054410A40059003E00D1C210A611232C04B
:1055500010014006614A815A616CC186219861A29E
:1055600061B6A1C881DE51EE31FC8508451C82B0D0
:105570005621DA31F0728006456A8560211036D0F6
:105580007A2700048A25B42D580E76A0C2410C3229
:10559000201216A0FC4D720E410A2D520E3AA02880
:1055A0003A20346EC0B20E1D620E4D5E0E4D560E88
:1055B0008D24030910F44D2E034D20035FC00A1AF9
:1055C0000E5D940F5E40060E4DC00F2DCA095EB0F1
:1055D000C4095E70F40F4DE40D4DE20D4DDC0D4D30
:1055E00038102DC8084DCE0D2DF0154DC20D4DC0F3
:1055F0000D4DBA0D4D42040D1E78044DB0044DA65C
:10560000044D82045EB07E0D4D7C0D4D76112D3A19
:10561000042D7E072D6E072D64072D5A072DEC13E0
:105620001E50CA132DAC0F05FF18F5182DEC14FEF3
:105630002040061E1864194D3E1021025A001649DA
:10564000187EC01E196D2019FE805A0CED420CED1B
:10565000320C0D1018198D1619ED1819DED0161907
:105660000D1018190E158018190D1E1419ED1019AA
:105670000D10C00BBEC0C00B8DB20BCDA40BCDEE78
:10568000188DE0186D8A0BAD820B8D780B6D6E0B4B
:10569000BE80A6188D9A188D5C0B0D12560B0D123C
:1056A0007A180E11C0560BDEA05E180E11705C0B3E
:1056B0000D124A18ED600B0E1910600BCD3618CD87
:1056C00032180D1A560B6D2018AD560B8D500B8DE0
:1056D0004A0B0D14EE176DE617CDDC170D14D2171B
:1056E0007220027210022D18074D7405610272C0FB
:1056F0000252B00252A00252900252800232700254
:105700007260025250025240025230027220025223
:10571000100292000263F0020272E002B2D002B202
:10572000C00292B0020211A00202119002021D807A
:1057300002022D70020211600202195002B24002F0
:1057400002FF000101E8014DBE032DA61B3EE0A4AF
:105750001B3ED0A01B3EC096072D94082EB09C1B6C
:1057600011083C049004605C175F700C98064C04B0
:105770000C7004BA08312A410421265D400B2DD457
:1057800007210C1D8E1731141D50171DC21B4DB45F
:10579000172DEE07210C43A00C0812B0081E40681C
:1057A0000B2D04083E4018091D6A0B1D540B1D7279
:1057B00017311012C0082D980B2D0A073E30220811
:1057C00023C00C0843C00C1012D0081220502D2802
:1057D000072D780B1ED05E092DBC172D960B2110BE
:1057E0004D56082D281C32E0584D4E071D64041DEF
:1057F000F617324008412E211232103A8310040469
:10580000212A32F07041361D9204420C0463200DAF
:105810000A011204E11E813E723056410441722198
:105820007CA18A210641A081B221B043000DCC8128
:10583000E821F061FE450C45144524653285442D70
:10584000E60C411256E06A4584256E658E859E25DC
:10585000BC4D860845BC25D465E64DA008DA900C01
:1058600029244112292E292C4EA0D81D394E3A70D8
:105870004C296219521DB60D297212501A2B400C78
:105880008221062D180A4D5E191EF0100E21063ECB
:1058900000160E1E106C0E4D3C0A4D440E2D381A8B
:1058A0002D880E4FD00B3E094D240E1E50DA1732B4
:1058B000D0082DE4172D80191E50CC064D840E2DD6
:1058C000D6064E90781A2DE2061D8A1A2D04182D40
:1058D000901A2DFC0E2D5E0B2DB00A2DAE1A2DEE5A
:1058E0001B2F200B160F2DA00E1D9E0E1DA0122D7E
:1058F0005E093D881F1D9A0E3D3A0F4E0A6A186DCB
:10590000600E2F3006A6192D96183DA2193D241CB5
:105910001240142D2E1B1EA0141C5D441B2DC418F8
:105920003DAC192DFA0F3D221C3DAE192DC8201E8D
:10593000F0E2183E20360E3E20FE184F000AAA0A5A
:105940004D1A194D5E0A5EE0D00B4D9A0B4D3C1975
:105950002DD40A3EB0EC1B4DCA0A6DC00B5EA0628E
:1059600019314421180D1BF80B1EE014104DD20AFA
:105970006D180B1D220F1D861C4D060CAD220BDE73
:1059800060120BCD300B02FF000101E8011E2A0856
:10599000190316500D0202174002021F30020225A1
:1059A00020020217100202130002E3F00C0252E080
:1059B00002F2D00272C00252B002D2A0023E90F8AF
:1059C00004A102327002526002525002524002326E
:1059D00030023220023210023E00EE0F2DF00F2D69
:1059E000F20F2DF40F2DF60F210292A0024E9020FF
:1059F0001F3DBC0461027250027230027220025ECE
:105A000000120E410252E00232D0027EC03E276DEB
:105A10003627ED140EFE40421ACD3E1ADEF0341A3F
:105A2000DED0FE0DED000EED3A1A8DFA0DEDF80DFB
:105A3000AD02270D14FE26CDAE190E13A0F20DFEF9
:105A40007092198DD426CD8219CD7C196DFA0DADC9
:105A5000F80D6DF20D0D1EF00D8D40190D103E1953
:105A6000BEB03E190D143819ED3A196DD20DCD2A7C
:105A7000198DC60DEDF6250D1A1E19DE50E625ED21
:105A8000D825ED1A19AD1019DEB00E19EDA62501B5
:105A9000E4028D822601E8020D64840C0D186C135B
:105AA000AD94133EA020256D92144D8417BC0410B4
:105AB00009A0C4083EF012094D4A192DDE132DFC31
:105AC00024ADD213ADDA145E90B4132D02234DFA37
:105AD000226DEA147E506A094D56093DAA041D74D0
